:020000001228C4
:10000800FF00030E8301A2000A08A3008A01230847
:0C0018008A00220E8300FF0E7F0E0900FC
:1000240083120313860188018701831687018801DF
:1000340007308600031788018901013003139500F6
:1000440081130130960088308B00073083128605B7
:10005400F830831686000130950001309600033095
:10006400FC009730FD00FD0B3528FC0B3528000003
:1000740000000730860001309500013096000730FB
:06008400831286054428EA
:04400E00F22F000786
:00000001FF
